:10000000FE2F00308A000408840A82070034483436
:1000100045344C344C344F34203457344F345234FC
:100020004C344434213400348C2F902F942F982F4B
:100E3200FB007808FA007A08F6007B088A2779080E
:100E42005A270800F5007508F40004300310F40C6A
:100E5200FF3E031D272F74080F39442775080F39E9
:100E6200442708000730831203139F00C030831603
:100E720003138600D327F8010130FC007C08F90037
:100E820000301927432FF30083120313061073084F
:100E920070278312031386140630F2003030F100FB
:100EA200F10B512FF20B512F000083120313861006
:100EB2000800F500F301F4017308750784000120AE
:100EC200003A031908007308750784000120AC2753
:100ED2000130F3070318F40A0030F4075D2FF00025
:100EE200701C772F8312031306157A2F83120313B4
:100EF2000611F01C7E2F86157F2F8611701D832F01
:100F02000616842F0612F01D882F861608008612F8
:100F12000800F700A02F7708803E232708007708F3
:100F2200C03E232708007708943E2327080077084D
:100F3200D43E232708007708803E2327080076083E
:100F420084000430040203189C2F00308A001430FD
:100F5200040782000800F2008312031306147208C9
:100F6200F10004300310F10CFF3E031DB32F710892
:100F72000F3970278312031386140D30F100F10B21
:100F8200C02F83120313861072080F397027831241
:100F9200031386140D30F100F10BCD2F83120313CE
:100FA200861008001A30F700F830F600F60BD72F3B
:100FB200F70BD72F0000033044270730F7007D30AE
:100FC200F600F60BE22FF70BE22F03304427153021
:100FD200F700C630F600F60BEC2FF70BEC2F0000F3
:100FE20003304427023044272830232706302327A2
:0E0FF2000C3023270130232708008301332F02
:02400E0018FF99
:00000001FF
