:02000000FD2BD6
:10075C000730831299003E308316850001308312D6
:10076C00A30683169C18B72B03309B000030831212
:10077C002318013083169A003F308312A000200802
:10078C0083169C05831203108B1B03148B13831687
:10079C001C1555309D00AA309D009C141C11831211
:1007AC0003188B1783169C18D82B03309B003F30F3
:1007BC008312A000200883169C051C141A1CE92B1C
:1007CC0083120514EB2B8312051083161C18EB2BCC
:1007DC0003308312A2008A30A1005530A000A00B78
:1007EC00F52BA10BF52BA20BF52BFC2BB42B8301BA
:0207FC00AE2B22
:02400E009431EB
:00000001FF
