:02000000FD2FD2
:100F1A000730831203139F00D5308316031386000C
:100F2A008312031386108611861283120313061C7A
:100F3A00741106187419B32F74150230F200453073
:100F4A00F100A930F000F00BA82FF10BA82FF20B3B
:100F5A00A82FAF2F02308312031386060619F41046
:100F6A00061DF418CA2FF4140230F2004530F100BD
:100F7A00A930F000F00BBF2FF10BBF2FF20BBF2FE0
:100F8A00C62F0830831203138606061E7410061A2B
:100F9A0074189A2FF3010A30730203189A2F8312D6
:100FAA000313061E9A2F093073060319E62F82309F
:100FBA00F100DD30F000F00BE02FF10BE02FE52F10
:100FCA00F82F74140230F2004530F100A930F00015
:100FDA00F00BED2FF10BED2FF20BED2FF42F20304C
:100FEA008312031386060130F0007008F307D02F2E
:060FFA00F40183018D2FBC
:02400E0018FF99
:00000001FF
