:10000000F42B00308A000408840A82070034563436
:1000100041344C34553445343A3420340034932A36
:06002000972A9C2AA12A88
:1002F60083129F171F1408008312AB002808AA0058
:100306002A08A6002B08902283122908F721080044
:100316008312AB002808AA002A08A6002B08902200
:10032600831229080F2208008312A6002730A50091
:100336002508A00026082C2283122808A4002708D6
:10034600A30008008312A5002508A40004300310AA
:10035600A40CFF3E031DAA2924080F39B7218312D6
:1003660025080F39B72108008312A30007102308B8
:10037600E021831287140630A2003030A100A10BC1
:10038600C229A20BC229000083128710080083121B
:10039600AB002808AA002A08A6002B089022831280
:1003A600AC0129082C020318080020304B2201302A
:1003B6008312AA002A08AC07D4298312A000201CA5
:1003C600E6290715E7290711A01CEB298715EC2953
:1003D6008711201DF0290716F1290712A01DF529FE
:1003E60087160800871208008312A500A301A4013E
:1003F6002308250784000120003A03190800230872
:100406002507840001204B2201308312A30703181D
:10041600A40A0030A407FB298312A600A401A501A3
:1004260024082607A3002308840083130008031961
:10043600080024082607A300230884008313000865
:100446004B2201308312A4070318A50A0030A50722
:10045600132A8312A2002208A100A10DA10D1F08D4
:100466002106E33921069F000630A100A10B392A97
:10047600000083129F149F183E2A200884008316CA
:100486001E0883138000840A83121E088000080059
:100496008312A20007142208A10004300310A10C45
:1004A600FF3E031D512A21080F39E02183128714CC
:1004B6000D30A100A10B5D2A8312871022080F3987
:1004C600E021831287140D30A100A10B682A831244
:1004D600871008008312B7003708B5003508B60044
:1004E600B21F852A2D30B5003708840035088313DE
:1004F60080000130B5003508B707B109B209B10A65
:100506000319B20A3208A9003108A8003408AB0062
:100516003308AA003708982308008312A700AB2ADD
:100526002708803EA521080083122708C03EA52182
:10053600080083122708943EA52108008312270885
:10054600D43EA521080083122708803EA521080075
:10055600831226088400043004020318A62A0030F9
:100566008A000F300407820008001A308312A700A1
:10057600F830A600A60BBD2AA70BBD2A0000033043
:10058600B72107308312A7007D30A600A60BC92A23
:10059600A70BC92A0330B72115308312A700C6302E
:1005A600A600A60BD42AA70BD42A00000330B72135
:1005B6000230B7212830A5210630A5210C30A5210F
:1005C6000130A52108008312200821040319142BE9
:1005D600A501A50AA11BFB2A01300310A00DA10D40
:1005E600FF3E031DF02A0130A4002408A507ED2ACA
:1005F60021082302031D012B20082202031C092BBC
:100606002008A2022108031CA303A3020130031041
:10061600A10CA00CFF3E031D0A2B0130A502031DF1
:10062600FB2A2308A1002208A00008008312A501C6
:10063600A601200821040319512BA701A70AA11B13
:10064600302B01300310A00DA10DFF3E031D252BFD
:100656000130A4002408A707222B01300310A50DA2
:10066600A60DFF3E031D312B21082302031D3D2B42
:1006760020082202031C462B2008A2022108031C84
:10068600A303A302251401300310A10CA00CFF3E06
:10069600031D472B0130A702031D302B2608A1009E
:1006A6002508A0000800073083129900FF30831642
:1006B6008500C0308700023091007B21B8220130CE
:1006C600972183122408BC002308BB003A083C0685
:1006D600031D6F2B39083B060319622B3C08BA0031
:1006E6003B08B9003C08B2003B08B1000A30B30031
:1006F6000030B4003D306D228312A8010130B800ED
:100706003808A90000307F218312A8010430B80000
:100716003808A9000730CA218312A8013D30B80065
:100726003808A90007308B21622B8312B0002908F4
:10073600AE002808AD002B08A1002A08A0002E084C
:10074600A3002D08A200192383122108AE00200859
:10075600AD000130AC002C08B0072D082E04031D97
:100766009E2B30088400831380010130B0022B08D1
:10077600A1002A08A0002908A3002808A200E62252
:1007860083122008AC002C08AF002B08A1002A0811
:10079600A0002908A3002808A20019238312210813
:1007A600A9002008A8000A302F02031CDE2B073000
:1007B600AC002C08AF073030AC002C08AF072F0870
:1007C600AC00300884002C08831380000130B0028E
:1007D60028082904031DBA2B0130AC002C08B007E9
:1007E60008008312B901BA01BB01BC01BD01BE01FB
:0807F600BF01C0018301562B75
:02400E0091FF20
:00000001FF
